:100000000C9462000C948A000C948A000C948A0070
:100010000C948A000C948A000C948A000C948A0038
:100020000C948A000C948A000C948A000C948A0028
:100030000C948A000C948A000C948A000C948A0018
:100040000C94FD010C948A000C946D020C944702F0
:100050000C948A000C948A000C948A000C948A00F8
:100060000C948A000C948A000000000024002700F1
:100070002A000000000023002600290000000000E4
:10008000250028002B0004040404040404040202D4
:100090000202020203030303030301020408102007
:1000A0004080010204081020010204081020000012
:1000B0000008000201000003040700000000000027
:1000C0000000FA0311241FBECFEFD8E0DEBFCDBF82
:1000D00011E0A0E0B1E0EEE5F8E002C005900D927D
:1000E000AC32B107D9F722E0ACE2B1E001C01D9219
:1000F000AC3CB207E1F710E0C2E6D0E004C02197C3
:10010000FE010E942704C136D107C9F70E949F0251
:100110000C942D040C940000AF92BF92CF92DF920A
:10012000EF92FF920F931F93CF93DF936C017B01AC
:100130008B01040F151FEB015E01AE18BF08C0173D
:10014000D10759F06991D601ED91FC910190F081B0
:10015000E02DC6010995892B79F7C501DF91CF9173
:100160001F910F91FF90EF90DF90CF90BF90AF90D5
:100170000895FC01538D448D252F30E0842F90E0AD
:10018000821B930B541710F0CF9608950197089592
:10019000FC01918D828D981761F0A28DAE0FBF2F5B
:1001A000B11D5D968C91928D9F5F9F73928F90E0B1
:1001B00008958FEF9FEF0895FC01918D828D981720
:1001C00031F0828DE80FF11D858D90E008958FEF5D
:1001D0009FEF0895FC01918D228D892F90E0805C26
:1001E0009F4F821B91098F73992708958FE292E0A8
:1001F0000E94EA0021E0892B09F420E0822F089573
:1002000080E090E0892B29F00E94F60081110C9487
:1002100000000895FC01A48DA80FB92FB11DA35AA9
:10022000BF4F2C91848D90E001968F739927848F16
:10023000A689B7892C93A089B1898C918370806439
:100240008C93938D848D981306C00288F389E02DDA
:1002500080818F7D80830895EF92FF920F931F938B
:10026000CF93DF93EC0181E0888F9B8D8C8D981369
:100270001AC0E889F989808185FF15C09FB7F89475
:10028000EE89FF896083E889F989808183708064C1
:1002900080839FBF81E090E0DF91CF911F910F910C
:1002A000FF90EF900895F62E0B8D10E00F5F1F4F1B
:1002B0000F731127E02E8C8D8E110CC00FB607FC2A
:1002C000FACFE889F989808185FFF5CFCE010E94B8
:1002D0000A01F1CFEB8DEC0FFD2FF11DE35AFF4F1B
:1002E000F0829FB7F8940B8FEA89FB898081806246
:1002F000CFCF0F931F93CF93DF938C01C5E3D1E052
:10030000CE01855391408017910734F469918FE2B3
:1003100092E00E942C01F4CFDF91CF911F910F91B9
:100320000895CF93DF93EC01888D8823B9F0AA89D3
:10033000BB89E889F9898C9185FD03C0808186FDA0
:100340000DC00FB607FCF7CF8C9185FFF2CF8081EF
:1003500085FFEDCFCE010E940A01E9CFDF91CF9159
:100360000895833081F028F4813099F08230A9F02B
:1003700008958730A9F08830C9F08430B1F48091B5
:1003800080008F7D03C0809180008F7780938000F4
:10039000089584B58F7784BD089584B58F7DFBCF94
:1003A0008091B0008F778093B00008958091B00065
:1003B0008F7DF9CFEF92FF920F931F93CF93DF932F
:1003C0008C017B018FE292E00E94EA008017910786
:1003D000CCF3E701CE018E199F098017910734F401
:1003E0008FE292E00E94C8008993F4CFDF91CF9111
:1003F0001F910F91FF90EF9008951F920F920FB6EB
:100400000F9211242F933F938F939F93AF93BF939A
:100410008091310190913201A0913301B09134016A
:100420003091300123E0230F2D3758F50196A11D9F
:10043000B11D209330018093310190933201A0933C
:100440003301B093340180912C0190912D01A09142
:100450002E01B0912F010196A11DB11D80932C0199
:1004600090932D01A0932E01B0932F01BF91AF91D6
:100470009F918F913F912F910F900FBE0F901F90E2
:10048000189526E8230F0296A11DB11DD2CF1F9209
:100490000F920FB60F9211242F933F934F935F93B8
:1004A0006F937F938F939F93AF93BF93EF93FF933C
:1004B0008FE292E00E940A01FF91EF91BF91AF910C
:1004C0009F918F917F916F915F914F913F912F916C
:1004D0000F900FBE0F901F9018951F920F920FB69E
:1004E0000F9211242F938F939F93EF93FF93E0919B
:1004F0003F02F09140028081E0914502F091460276
:1005000082FD1BC09081809148028F5F8F73209184
:100510004902821741F0E0914802F0E0E15DFD4FB1
:10052000958F80934802FF91EF919F918F912F912A
:100530000F900FBE0F901F9018958081F4CFCF932E
:10054000DF931F92CDB7DEB7789484B5826084BD07
:1005500084B5816084BD85B5826085BD85B58160C7
:1005600085BD80916E00816080936E001092810045
:100570008091810082608093810080918100816000
:1005800080938100809180008160809380008091C1
:10059000B10084608093B1008091B000816080934D
:1005A000B00080917A00846080937A0080917A0014
:1005B000826080937A0080917A00816080937A00D3
:1005C00080917A00806880937A001092C100E09157
:1005D0003F02F091400282E08083E0913B02F09183
:1005E0003C021082E0913D02F0913E028FEC80834C
:1005F00010924702E0914302F091440286E080832A
:10060000E0914102F0914202808180618083E0911B
:100610004102F0914202808188608083E091410232
:10062000F0914202808180688083E0914102F091E4
:10063000420280818F7D8083A2E1B1E08D919D9106
:1006400018161906A4F150E0A52E50E0B52E62E070
:10065000962E882483941982BE016F5F7F4F81E0BC
:1006600090E00E94DA018981082E000C990B97FD19
:1006700004C065E371E00E94DA01809135018230A7
:1006800009F436C0833009F48BC0813009F074C09E
:10069000E7E3F1E0A2E1B1E08D919D918F01055377
:1006A0001140181619060CF073C08193F5CF9927E5
:1006B000FC01E656FF4F24918A579F4FFC0184911D
:1006C000882309F4BBCF90E0880F991FFC01E859FB
:1006D000FF4F45915491FC01E458FF4F859194914F
:1006E0008FB7F894FA019081922B90838FBFA6CF99
:1006F00025E3E22E21E0F22E32E1C32E31E0D32EAB
:1007000002E010E0F601219131916F0112161306FB
:100710004CF5F70122833327F901E255FF4F84910D
:10072000F901E656FF4F7490F901EA57FF4F6490C4
:10073000662079F081110E94B101E62DF0E0EE0F04
:10074000FF1FEE58FF4FA591B491EC917E2281E0FE
:1007500009F480E0F70183830E5F1F4FF2E0EF0E94
:10076000F11CD0CF602F8FE292E00E942C0190927A
:100770003601C8010E947901A114B10409F46BCFBC
:100780000E94F600882309F466CF0E94000063CF20
:10079000602F8FE292E00E942C0180923601E9CF17
:1007A0002091360130E0F901E255FF4F8491F901C3
:1007B000E656FF4F1491F901EA57FF4F04910023C9
:1007C000D9F2F090370181110E94B101E02FF0E0E1
:1007D000EE0FFF1FE458FF4FA591B4918FB7F89427
:1007E000EC91F11005C010951E231C938FBFC4CF50
:1007F0001E2BFBCFEFE2F2E01382128288EE93E031
:10080000A0E0B0E084839583A683B78384E091E081
:100810009183808385EC90E09587848784EC90E0D9
:100820009787868780EC90E0918B808B81EC90E0BD
:10083000938B828B82EC90E0958B848B86EC90E09E
:10084000978B868B118E128E138E148E0895EE0F59
:0E085000FF1F0590F491E02D0994F894FFCF5E
:10085E00000000002C018C00B9009101EA00C800D4
:10086E00DC0002000300040005000600070008007B
:0C087E0009000A000B000C000D00FFFF39
:00000001FF
