:020000040000FA
:100000000C9462000C948A000C948A000C948A0070
:100010000C948A000C948A000C948A000C948A0038
:100020000C948A000C948A000C948A000C948A0028
:100030000C948A000C948A000C948A000C948A0018
:100040000C94FB010C948A000C946B020C944502F6
:100050000C948A000C948A000C948A000C948A00F8
:100060000C948A000C948A000000000024002700F1
:100070002A000000000023002600290000000000E4
:10008000250028002B0004040404040404040202D4
:100090000202020203030303030301020408102007
:1000A0004080010204081020010204081020000012
:1000B0000008000201000003040700000000000027
:1000C0000000F20311241FBECFEFD8E0DEBFCDBF8A
:1000D00011E0A0E0B1E0EEE4F8E002C005900D927E
:1000E000AC32B107D9F722E0ACE2B1E001C01D9219
:1000F000AC3CB207E1F710E0C2E6D0E004C02197C3
:10010000FE010E941F04C136D107C9F70E949D025B
:100110000C9425040C940000AF92BF92CF92DF9212
:10012000EF92FF920F931F93CF93DF936C017B01AC
:100130008B01040F151FEB015E01AE18BF08C0173D
:10014000D10759F06991D601ED91FC910190F081B0
:10015000E02DC6010995892B79F7C501DF91CF9173
:100160001F910F91FF90EF90DF90CF90BF90AF90D5
:100170000895FC01538D448D252F30E0842F90E0AD
:10018000821B930B541710F0CF9608950197089592
:10019000FC01918D828D981761F0A28DAE0FBF2F5B
:1001A000B11D5D968C91928D9F5F9F73928F90E0B1
:1001B00008958FEF9FEF0895FC01918D828D981720
:1001C00031F0828DE80FF11D858D90E008958FEF5D
:1001D0009FEF0895FC01918D228D892F90E0805C26
:1001E0009F4F821B91098F73992708958FE292E0A8
:1001F0000E94EA0021E0892B09F420E0822F089573
:1002000080E090E0892B29F00E94F60081110C9487
:1002100000000895FC01A48DA80FB92FB11DA35AA9
:10022000BF4F2C91848D90E001968F739927848F16
:10023000A689B7892C93A089B1898C918370806439
:100240008C93938D848D981306C00288F389E02DDA
:1002500080818F7D80830895EF92FF920F931F938B
:10026000CF93DF93EC0181E0888F9B8D8C8D981369
:100270001AC0E889F989808185FF15C09FB7F89475
:10028000EE89FF896083E889F989808183708064C1
:1002900080839FBF81E090E0DF91CF911F910F910C
:1002A000FF90EF900895F62E0B8D10E00F5F1F4F1B
:1002B0000F731127E02E8C8D8E110CC00FB607FC2A
:1002C000FACFE889F989808185FFF5CFCE010E94B8
:1002D0000A01F1CFEB8DEC0FFD2FF11DE35AFF4F1B
:1002E000F0829FB7F8940B8FEA89FB898081806246
:1002F000CFCF0F931F93CF93DF93C5E3D1E08C0152
:100300000B5C1E4F69918FE292E00E942C01C01796
:10031000D107C1F7DF91CF911F910F910895CF932E
:10032000DF93EC01888D8823B9F0AA89BB89E8891D
:10033000F9898C9185FD03C0808186FD0DC00FB6C3
:1003400007FCF7CF8C9185FFF2CF808185FFEDCF41
:10035000CE010E940A01E9CFDF91CF910895833049
:1003600081F028F4813099F08230A9F00895873027
:10037000A9F08830C9F08430B1F4809180008F7D7D
:1003800003C0809180008F7780938000089584B5AA
:100390008F7784BD089584B58F7DFBCF8091B000A9
:1003A0008F778093B00008958091B0008F7DF9CF52
:1003B000EF92FF920F931F93CF93DF938C017B01FA
:1003C0008FE292E00E94EA0080179107CCF3E701E8
:1003D000CE018E199F098017910734F48FE292E0C5
:1003E0000E94C8008993F4CFDF91CF911F910F91A4
:1003F000FF90EF9008951F920F920FB60F92112465
:100400002F933F938F939F93AF93BF93809131012D
:1004100090913201A0913301B091340130913001BB
:1004200023E0230F2D3758F50196A11DB11D209310
:1004300030018093310190933201A0933301B09346
:10044000340180912C0190912D01A0912E01B09149
:100450002F010196A11DB11D80932C0190932D01B8
:10046000A0932E01B0932F01BF91AF919F918F91D7
:100470003F912F910F900FBE0F901F90189526E877
:10048000230F0296A11DB11DD2CF1F920F920FB65E
:100490000F9211242F933F934F935F936F937F930A
:1004A0008F939F93AF93BF93EF93FF938FE292E06D
:1004B0000E940A01FF91EF91BF91AF919F918F919F
:1004C0007F916F915F914F913F912F910F900FBE50
:1004D0000F901F9018951F920F920FB60F92112434
:1004E0002F938F939F93EF93FF93E0913F02F091AF
:1004F00040028081E0914502F091460282FD1BC0DE
:100500009081809148028F5F8F73209149028217FA
:1005100041F0E0914802F0E0E15DFD4F958F80935E
:100520004802FF91EF919F918F912F910F900FBEF5
:100530000F901F9018958081F4CFCF93DF931F9277
:10054000CDB7DEB7789484B5826084BD84B5816010
:1005500084BD85B5826085BD85B5816085BD80918E
:100560006E00816080936E00109281008091810006
:1005700082608093810080918100816080938100FE
:10058000809180008160809380008091B1008460C0
:100590008093B1008091B00081608093B000809121
:1005A0007A00846080937A0080917A0082608093E0
:1005B0007A0080917A00816080937A0080917A003D
:1005C000806880937A001092C100E0913F02F09120
:1005D000400282E08083E0913B02F0913C02108275
:1005E000E0913D02F0913E028FEC80831092470231
:1005F000E0914302F091440286E08083E091410261
:10060000F0914202808180618083E0914102F0910B
:100610004202808188608083E0914102F091420231
:10062000808180688083E0914102F0914202808164
:100630008F7D8083A2E1B1E08D919D9118161906FE
:1006400094F140E0C42E40E0D42EBB24B394198230
:10065000BE016F5F7F4F81E090E00E94D8018981E9
:10066000082E000C990B97FD04C065E371E00E9411
:10067000D80180913501823009F436C0833009F405
:1006800087C0813009F06FC0E7E3F1E0A2E1B1E09B
:100690008D919D918F0105531140181619060CF08C
:1006A0006EC08193F5CF9927FC01E656FF4F249148
:1006B0008A579F4FFC018491882309F4BDCF90E0B5
:1006C000880F991FFC01E859FF4F45915491FC0197
:1006D000E458FF4F859194918FB7F894FA01908177
:1006E000922B90838FBFA8CF05E311E022E1E22E89
:1006F00021E0F22EF701219131917F0112161306AC
:1007000034F5F80122833327F901E255FF4F849134
:10071000F901E656FF4FA490F901EA57FF4F949074
:10072000992079F081110E94AF01E92DF0E0EE0FE0
:10073000FF1FEE58FF4FA591B491EC91AE2281E0DE
:1007400009F480E0F80183830E5F1F4FD3CF62E08E
:100750008FE292E00E942C0182E08093360182E0D9
:1007600090E00E947901C114D10409F470CF0E9475
:10077000F600882309F46BCF0E94000068CF602F39
:100780008FE292E00E942C01B0923601C801E9CFBD
:100790002091360130E0F901E255FF4F8491F901D3
:1007A000E656FF4F1491F901EA57FF4F04910023D9
:1007B000D1F2F090370181110E94AF01E02FF0E0FB
:1007C000EE0FFF1FE458FF4FA591B4918FB7F89437
:1007D000EC91F11005C010951E231C938FBFC3CF61
:1007E0001E2BFBCFEFE2F2E01382128288EE93E041
:1007F000A0E0B0E084839583A683B78384E091E092
:100800009183808385EC90E09587848784EC90E0E9
:100810009787868780EC90E0918B808B81EC90E0CD
:10082000938B828B82EC90E0958B848B86EC90E0AE
:10083000978B868B118E128E138E148E0895EE0F69
:10084000FF1F0590F491E02D0994F894FFCF00006C
:1008500000002C018C00B9008F01EA00C800DC0008
:10086000020003000400050006000700080009005C
:0A0870000A000B000C000D00FFFF52
:107E0000112484B714BE81FFF0D085E080938100F7
:107E100082E08093C00088E18093C10086E0809377
:107E2000C20080E18093C4008EE0C9D0259A86E02C
:107E300020E33CEF91E0309385002093840096BBD3
:107E4000B09BFECF1D9AA8958150A9F7CC24DD24C4
:107E500088248394B5E0AB2EA1E19A2EF3E0BF2EE7
:107E6000A2D0813461F49FD0082FAFD0023811F036
:107E7000013811F484E001C083E08DD089C08234E0
:107E800011F484E103C0853419F485E0A6D080C0E4
:107E9000853579F488D0E82EFF2485D0082F10E0AE
:107EA000102F00270E291F29000F111F8ED06801E7
:107EB0006FC0863521F484E090D080E0DECF843638
:107EC00009F040C070D06FD0082F6DD080E0C81688
:107ED00080E7D80618F4F601B7BEE895C0E0D1E017
:107EE00062D089930C17E1F7F0E0CF16F0E7DF06D8
:107EF00018F0F601B7BEE89568D007B600FCFDCFD4
:107F0000A601A0E0B1E02C9130E011968C91119780
:107F100090E0982F8827822B932B1296FA010C0160
:107F200087BEE89511244E5F5F4FF1E0A038BF0790
:107F300051F7F601A7BEE89507B600FCFDCF97BE46
:107F4000E89526C08437B1F42ED02DD0F82E2BD052
:107F50003CD0F601EF2C8F010F5F1F4F84911BD097
:107F6000EA94F801C1F70894C11CD11CFA94CF0C13
:107F7000D11C0EC0853739F428D08EE10CD085E9AC
:107F80000AD08FE07ACF813511F488E018D01DD067
:107F900080E101D065CF982F8091C00085FFFCCF94
:107FA0009093C60008958091C00087FFFCCF809118
:107FB000C00084FD01C0A8958091C6000895E0E648
:107FC000F0E098E1908380830895EDDF803219F02E
:107FD00088E0F5DFFFCF84E1DECF1F93182FE3DFCA
:107FE0001150E9F7F2DF1F91089580E0E8DFEE27F6
:047FF000FF270994CA
:027FFE00040479
:00000001FF
